:1000000012C019C018C017C016C015C014C013C044
:1000100012C011C010C00FC00EC00DC00CC00BC06C
:100020000AC009C008C011241FBECFE5D4E0DEBF5E
:10003000CDBF02D033C0E4CFDF93CF93CDB7DEB7CF
:10004000FFCFDF93CF93CDB7DEB7E6E5F0E084E9ED
:100050008083CF91DF910895DF93CF93CDB7DEB743
:10006000E6E5F0E084EA8083E6E5F0E0808188233D
:10007000DCF7CF91DF910895DF93CF93CDB7DEB753
:10008000E1E2F0E01082E0E2F0E08CE08083E6E57F
:10009000F0E084E08083CF91DF910895F894FFCF62
:00000001FF
